8=FIX.4.4|9=98|35=A|34=1|49=initiator|52=20200717-12:46:59.770|56=acceptor|98=0|108=30|553=domenico|554=domenico|10=138|
8=FIX.4.4|9=78|35=A|49=acceptor|56=initiator|34=1|52=20200717-12:46:59.877|98=0|108=30|141=N|10=095|
8=FIX.4.4|9=60|35=0|49=acceptor|56=initiator|34=2|52=20200717-12:47:23.898|10=006|
8=FIX.4.4|9=60|35=0|34=2|49=initiator|52=20200717-12:47:29.760|56=acceptor|10=000|
8=FIX.4.4|9=60|35=0|49=acceptor|56=initiator|34=3|52=20200717-12:47:47.898|10=013|
8=FIX.4.4|9=60|35=0|34=3|49=initiator|52=20200717-12:47:59.761|56=acceptor|10=005|
8=FIX.4.4|9=60|35=0|49=acceptor|56=initiator|34=4|52=20200717-12:48:11.898|10=006|
8=FIX.4.4|9=60|35=0|34=4|49=initiator|52=20200717-12:48:29.760|56=acceptor|10=003|
8=FIX.4.4|9=60|35=0|49=acceptor|56=initiator|34=5|52=20200717-12:48:35.899|10=014|
8=FIX.4.4|9=98|35=A|34=1|49=initiator|52=20200719-19:50:22.168|56=acceptor|98=0|108=30|553=domenico|554=domenico|10=133|
8=FIX.4.4|9=98|35=A|34=1|49=initiator|52=20200719-19:52:08.948|56=acceptor|98=0|108=30|553=domenico|554=domenico|10=145|
8=FIX.4.4|9=78|35=A|49=acceptor|56=initiator|34=1|52=20200719-19:52:09.037|98=0|108=30|141=N|10=084|
8=FIX.4.4|9=60|35=0|49=acceptor|56=initiator|34=2|52=20200719-19:52:33.056|10=254|
8=FIX.4.4|9=60|35=0|34=2|49=initiator|52=20200719-19:52:38.944|56=acceptor|10=009|
8=FIX.4.4|9=60|35=0|49=acceptor|56=initiator|34=3|52=20200719-19:52:57.056|10=005|
8=FIX.4.4|9=98|35=A|34=1|49=initiator|52=20200719-23:56:20.624|56=acceptor|98=0|108=30|553=domenico|554=domenico|10=129|
8=FIX.4.4|9=78|35=A|49=acceptor|56=initiator|34=1|52=20200719-23:56:20.708|98=0|108=30|141=N|10=081|
8=FIX.4.4|9=60|35=0|49=acceptor|56=initiator|34=2|52=20200719-23:56:44.733|10=001|
8=FIX.4.4|9=60|35=0|34=2|49=initiator|52=20200719-23:56:50.619|56=acceptor|10=001|
8=FIX.4.4|9=60|35=0|49=acceptor|56=initiator|34=3|52=20200719-23:57:08.733|10=003|
8=FIX.4.4|9=69|35=1|49=acceptor|56=initiator|34=4|52=20200719-23:57:23.625|112=TEST|10=029|
8=FIX.4.4|9=60|35=0|49=acceptor|56=initiator|34=5|52=20200719-23:57:47.625|10=008|
8=FIX.4.4|9=60|35=0|34=3|49=initiator|52=20200719-23:58:11.908|56=acceptor|10=002|
8=FIX.4.4|9=117|35=3|34=4|49=initiator|52=20200720-00:00:34.096|56=acceptor|45=4|58=SendingTime accuracy problem|371=52|372=1|373=10|10=002|
8=FIX.4.4|9=102|35=5|34=5|49=initiator|52=20200720-00:00:34.097|56=acceptor|58=SendingTime accuracy problem, field=52|10=146|
8=FIX.4.4|9=60|35=5|34=6|49=initiator|52=20200720-00:00:34.098|56=acceptor|10=245|
8=FIX.4.4|9=98|35=A|34=1|49=initiator|52=20200720-00:01:54.192|56=acceptor|98=0|108=30|553=domenico|554=domenico|10=113|
8=FIX.4.4|9=78|35=A|49=acceptor|56=initiator|34=1|52=20200720-00:01:54.275|98=0|108=30|141=N|10=064|
8=FIX.4.4|9=60|35=0|49=acceptor|56=initiator|34=2|52=20200720-00:02:18.296|10=240|
8=FIX.4.4|9=60|35=0|34=2|49=initiator|52=20200720-00:02:24.188|56=acceptor|10=237|
8=FIX.4.4|9=60|35=0|49=acceptor|56=initiator|34=3|52=20200720-00:02:42.296|10=238|
8=FIX.4.4|9=60|35=0|34=3|49=initiator|52=20200720-00:02:54.188|56=acceptor|10=241|
8=FIX.4.4|9=60|35=0|49=acceptor|56=initiator|34=4|52=20200720-00:03:06.297|10=241|
8=FIX.4.4|9=60|35=0|34=4|49=initiator|52=20200720-00:03:24.188|56=acceptor|10=240|
8=FIX.4.4|9=60|35=0|49=acceptor|56=initiator|34=5|52=20200720-00:03:30.297|10=239|
8=FIX.4.4|9=60|35=0|34=5|49=initiator|52=20200720-00:03:54.188|56=acceptor|10=244|
8=FIX.4.4|9=60|35=0|49=acceptor|56=initiator|34=6|52=20200720-00:03:54.297|10=246|
8=FIX.4.4|9=60|35=0|49=acceptor|56=initiator|34=7|52=20200720-00:04:18.298|10=249|
8=FIX.4.4|9=60|35=0|34=6|49=initiator|52=20200720-00:04:24.187|56=acceptor|10=242|
8=FIX.4.4|9=60|35=0|49=acceptor|56=initiator|34=8|52=20200720-00:04:42.298|10=247|
8=FIX.4.4|9=60|35=0|34=7|49=initiator|52=20200720-00:04:54.188|56=acceptor|10=247|
8=FIX.4.4|9=60|35=0|49=acceptor|56=initiator|34=9|52=20200720-00:05:06.298|10=249|
8=FIX.4.4|9=60|35=0|34=8|49=initiator|52=20200720-00:05:24.187|56=acceptor|10=245|
8=FIX.4.4|9=61|35=0|49=acceptor|56=initiator|34=10|52=20200720-00:05:30.298|10=031|
8=FIX.4.4|9=98|35=A|34=1|49=initiator|52=20200720-00:06:27.562|56=acceptor|98=0|108=30|553=domenico|554=domenico|10=119|
8=FIX.4.4|9=78|35=A|49=acceptor|56=initiator|34=1|52=20200720-00:06:27.647|98=0|108=30|141=N|10=072|
8=FIX.4.4|9=60|35=0|49=acceptor|56=initiator|34=2|52=20200720-00:06:51.671|10=238|
8=FIX.4.4|9=60|35=0|34=2|49=initiator|52=20200720-00:06:57.556|56=acceptor|10=246|
8=FIX.4.4|9=60|35=0|49=acceptor|56=initiator|34=3|52=20200720-00:07:15.672|10=241|
8=FIX.4.4|9=60|35=0|34=3|49=initiator|52=20200720-00:07:27.557|56=acceptor|10=246|
8=FIX.4.4|9=60|35=0|49=acceptor|56=initiator|34=4|52=20200720-00:07:39.672|10=248|
8=FIX.4.4|9=60|35=0|34=4|49=initiator|52=20200720-00:07:57.556|56=acceptor|10=249|
8=FIX.4.4|9=60|35=0|49=acceptor|56=initiator|34=5|52=20200720-00:08:03.672|10=241|
8=FIX.4.4|9=60|35=0|34=5|49=initiator|52=20200720-00:08:27.556|56=acceptor|10=248|
8=FIX.4.4|9=60|35=0|49=acceptor|56=initiator|34=6|52=20200720-00:08:27.673|10=249|
8=FIX.4.4|9=60|35=0|49=acceptor|56=initiator|34=7|52=20200720-00:08:51.673|10=247|
8=FIX.4.4|9=60|35=0|34=6|49=initiator|52=20200720-00:08:57.556|56=acceptor|10=252|
8=FIX.4.4|9=60|35=0|49=acceptor|56=initiator|34=8|52=20200720-00:09:15.674|10=250|
8=FIX.4.4|9=60|35=0|34=7|49=initiator|52=20200720-00:09:27.557|56=acceptor|10=252|
8=FIX.4.4|9=60|35=5|34=8|49=initiator|52=20200720-00:09:35.556|56=acceptor|10=000|
8=FIX.4.4|9=60|35=5|49=acceptor|56=initiator|34=9|52=20200720-00:09:35.561|10=253|
8=FIX.4.4|9=98|35=A|34=1|49=initiator|52=20200720-00:10:51.839|56=acceptor|98=0|108=30|553=domenico|554=domenico|10=118|
8=FIX.4.4|9=78|35=A|49=acceptor|56=initiator|34=1|52=20200720-00:10:51.926|98=0|108=30|141=N|10=064|
8=FIX.4.4|9=60|35=0|49=acceptor|56=initiator|34=2|52=20200720-00:11:15.945|10=238|
8=FIX.4.4|9=98|35=A|34=1|49=initiator|52=20200720-00:12:29.084|56=acceptor|98=0|108=30|553=domenico|554=domenico|10=117|
8=FIX.4.4|9=78|35=A|49=acceptor|56=initiator|34=1|52=20200720-00:12:29.179|98=0|108=30|141=N|10=071|
8=FIX.4.4|9=60|35=0|49=acceptor|56=initiator|34=2|52=20200720-00:12:53.201|10=226|
8=FIX.4.4|9=60|35=0|34=2|49=initiator|52=20200720-00:12:59.075|56=acceptor|10=241|
8=FIX.4.4|9=60|35=0|49=acceptor|56=initiator|34=3|52=20200720-00:13:17.202|10=229|
8=FIX.4.4|9=60|35=0|34=3|49=initiator|52=20200720-00:13:29.074|56=acceptor|10=239|
8=FIX.4.4|9=60|35=0|49=acceptor|56=initiator|34=4|52=20200720-00:13:41.202|10=227|
8=FIX.4.4|9=60|35=0|34=4|49=initiator|52=20200720-00:13:59.074|56=acceptor|10=243|
8=FIX.4.4|9=60|35=0|49=acceptor|56=initiator|34=5|52=20200720-00:14:05.202|10=229|
8=FIX.4.4|9=60|35=0|34=5|49=initiator|52=20200720-00:14:29.075|56=acceptor|10=243|
8=FIX.4.4|9=60|35=0|49=acceptor|56=initiator|34=6|52=20200720-00:14:29.202|10=236|
8=FIX.4.4|9=60|35=0|49=acceptor|56=initiator|34=7|52=20200720-00:14:53.202|10=234|
8=FIX.4.4|9=60|35=0|34=6|49=initiator|52=20200720-00:14:59.074|56=acceptor|10=246|
8=FIX.4.4|9=60|35=0|49=acceptor|56=initiator|34=8|52=20200720-00:15:17.202|10=236|
8=FIX.4.4|9=60|35=0|34=7|49=initiator|52=20200720-00:15:29.074|56=acceptor|10=245|
8=FIX.4.4|9=60|35=0|49=acceptor|56=initiator|34=9|52=20200720-00:15:41.203|10=235|
8=FIX.4.4|9=60|35=0|34=8|49=initiator|52=20200720-00:15:59.074|56=acceptor|10=249|
8=FIX.4.4|9=61|35=0|49=acceptor|56=initiator|34=10|52=20200720-00:16:05.203|10=021|
8=FIX.4.4|9=60|35=0|34=9|49=initiator|52=20200720-00:16:29.074|56=acceptor|10=248|
8=FIX.4.4|9=61|35=0|49=acceptor|56=initiator|34=11|52=20200720-00:16:29.204|10=029|
8=FIX.4.4|9=61|35=0|49=acceptor|56=initiator|34=12|52=20200720-00:16:53.204|10=027|
8=FIX.4.4|9=61|35=0|34=10|49=initiator|52=20200720-00:16:59.074|56=acceptor|10=036|
8=FIX.4.4|9=61|35=0|49=acceptor|56=initiator|34=13|52=20200720-00:17:17.204|10=029|
8=FIX.4.4|9=61|35=0|34=11|49=initiator|52=20200720-00:17:29.074|56=acceptor|10=035|
8=FIX.4.4|9=61|35=0|49=acceptor|56=initiator|34=14|52=20200720-00:17:41.204|10=027|
8=FIX.4.4|9=61|35=0|34=12|49=initiator|52=20200720-00:17:59.075|56=acceptor|10=040|
8=FIX.4.4|9=61|35=0|49=acceptor|56=initiator|34=15|52=20200720-00:18:05.204|10=029|
8=FIX.4.4|9=61|35=0|34=13|49=initiator|52=20200720-00:18:29.074|56=acceptor|10=038|
8=FIX.4.4|9=61|35=0|49=acceptor|56=initiator|34=16|52=20200720-00:18:29.204|10=036|
8=FIX.4.4|9=61|35=0|49=acceptor|56=initiator|34=17|52=20200720-00:18:53.205|10=035|
8=FIX.4.4|9=61|35=0|34=14|49=initiator|52=20200720-00:18:59.074|56=acceptor|10=042|
8=FIX.4.4|9=61|35=0|49=acceptor|56=initiator|34=18|52=20200720-00:19:17.205|10=037|
8=FIX.4.4|9=98|35=A|34=1|49=initiator|52=20200720-00:23:31.930|56=acceptor|98=0|108=30|553=domenico|554=domenico|10=112|
8=FIX.4.4|9=78|35=A|49=acceptor|56=initiator|34=1|52=20200720-00:23:32.009|98=0|108=30|141=N|10=059|
8=FIX.4.4|9=98|35=A|34=1|49=initiator|52=20200720-00:26:48.488|56=acceptor|98=0|108=30|553=domenico|554=domenico|10=131|
8=FIX.4.4|9=98|35=A|34=1|49=initiator|52=20200720-01:36:06.184|56=acceptor|98=0|108=30|553=domenico|554=domenico|10=120|
8=FIX.4.4|9=98|35=A|34=1|49=initiator|52=20200720-01:37:53.818|56=acceptor|98=0|108=30|553=domenico|554=domenico|10=127|
8=FIX.4.4|9=78|35=A|49=acceptor|56=initiator|34=1|52=20200720-01:37:53.910|98=0|108=30|141=N|10=069|
8=FIX.4.4|9=60|35=0|49=acceptor|56=initiator|34=2|52=20200720-01:38:17.932|10=246|
8=FIX.4.4|9=60|35=0|34=2|49=initiator|52=20200720-01:38:23.811|56=acceptor|10=239|
8=FIX.4.4|9=60|35=0|49=acceptor|56=initiator|34=3|52=20200720-01:38:41.933|10=245|
8=FIX.4.4|9=60|35=0|34=3|49=initiator|52=20200720-01:38:53.810|56=acceptor|10=242|
8=FIX.4.4|9=60|35=0|49=acceptor|56=initiator|34=4|52=20200720-01:39:05.934|10=248|
8=FIX.4.4|9=60|35=0|34=4|49=initiator|52=20200720-01:39:23.810|56=acceptor|10=241|
8=FIX.4.4|9=60|35=0|49=acceptor|56=initiator|34=5|52=20200720-01:39:29.934|10=255|
8=FIX.4.4|9=60|35=0|34=5|49=initiator|52=20200720-01:39:53.811|56=acceptor|10=246|
8=FIX.4.4|9=60|35=0|49=acceptor|56=initiator|34=6|52=20200720-01:39:53.934|10=253|
8=FIX.4.4|9=60|35=0|49=acceptor|56=initiator|34=7|52=20200720-01:40:17.934|10=246|
8=FIX.4.4|9=60|35=0|34=6|49=initiator|52=20200720-01:40:23.810|56=acceptor|10=235|
8=FIX.4.4|9=60|35=0|49=acceptor|56=initiator|34=8|52=20200720-01:40:41.934|10=244|
8=FIX.4.4|9=60|35=0|34=7|49=initiator|52=20200720-01:40:53.810|56=acceptor|10=239|
8=FIX.4.4|9=60|35=0|49=acceptor|56=initiator|34=9|52=20200720-01:41:05.934|10=246|
8=FIX.4.4|9=60|35=0|34=8|49=initiator|52=20200720-01:41:23.810|56=acceptor|10=238|
8=FIX.4.4|9=61|35=0|49=acceptor|56=initiator|34=10|52=20200720-01:41:29.935|10=038|
8=FIX.4.4|9=60|35=0|34=9|49=initiator|52=20200720-01:41:53.811|56=acceptor|10=243|
8=FIX.4.4|9=61|35=0|49=acceptor|56=initiator|34=11|52=20200720-01:41:53.935|10=036|
8=FIX.4.4|9=61|35=0|49=acceptor|56=initiator|34=12|52=20200720-01:42:17.936|10=039|
8=FIX.4.4|9=61|35=0|34=10|49=initiator|52=20200720-01:42:23.810|56=acceptor|10=025|
8=FIX.4.4|9=61|35=0|49=acceptor|56=initiator|34=13|52=20200720-01:42:41.936|10=037|
8=FIX.4.4|9=61|35=0|34=11|49=initiator|52=20200720-01:42:53.810|56=acceptor|10=029|
8=FIX.4.4|9=61|35=0|49=acceptor|56=initiator|34=14|52=20200720-01:43:05.936|10=039|
8=FIX.4.4|9=61|35=0|34=12|49=initiator|52=20200720-01:43:23.810|56=acceptor|10=028|
8=FIX.4.4|9=61|35=0|49=acceptor|56=initiator|34=15|52=20200720-01:43:29.936|10=046|
8=FIX.4.4|9=61|35=0|34=13|49=initiator|52=20200720-01:43:53.811|56=acceptor|10=033|
8=FIX.4.4|9=61|35=0|49=acceptor|56=initiator|34=16|52=20200720-01:43:53.937|10=045|
8=FIX.4.4|9=61|35=0|49=acceptor|56=initiator|34=17|52=20200720-01:44:17.937|10=047|
8=FIX.4.4|9=61|35=0|34=14|49=initiator|52=20200720-01:44:23.811|56=acceptor|10=032|
8=FIX.4.4|9=61|35=0|49=acceptor|56=initiator|34=18|52=20200720-01:44:41.938|10=046|
8=FIX.4.4|9=61|35=0|34=15|49=initiator|52=20200720-01:44:53.812|56=acceptor|10=037|
8=FIX.4.4|9=61|35=0|49=acceptor|56=initiator|34=19|52=20200720-01:45:05.939|10=049|
8=FIX.4.4|9=98|35=A|34=1|49=initiator|52=20200720-01:55:54.794|56=acceptor|98=0|108=30|553=domenico|554=domenico|10=131|
8=FIX.4.4|9=78|35=A|49=acceptor|56=initiator|34=1|52=20200720-01:55:54.877|98=0|108=30|141=N|10=082|
8=FIX.4.4|9=60|35=0|49=acceptor|56=initiator|34=2|52=20200720-01:56:18.898|10=002|
8=FIX.4.4|9=60|35=0|34=2|49=initiator|52=20200720-01:56:24.791|56=acceptor|10=247|
8=FIX.4.4|9=60|35=0|49=acceptor|56=initiator|34=3|52=20200720-01:56:42.898|10=000|
8=FIX.4.4|9=60|35=0|34=3|49=initiator|52=20200720-01:56:54.792|56=acceptor|10=252|
8=FIX.4.4|9=60|35=0|49=acceptor|56=initiator|34=4|52=20200720-01:57:06.898|10=002|
8=FIX.4.4|9=60|35=0|34=4|49=initiator|52=20200720-01:57:24.792|56=acceptor|10=251|
8=FIX.4.4|9=60|35=0|49=acceptor|56=initiator|34=5|52=20200720-01:57:30.898|10=000|
8=FIX.4.4|9=60|35=0|34=5|49=initiator|52=20200720-01:57:54.790|56=acceptor|10=253|
8=FIX.4.4|9=60|35=0|49=acceptor|56=initiator|34=6|52=20200720-01:57:54.899|10=008|
8=FIX.4.4|9=98|35=A|34=1|49=initiator|52=20200720-01:58:58.700|56=acceptor|98=0|108=30|553=domenico|554=domenico|10=125|
8=FIX.4.4|9=78|35=A|49=acceptor|56=initiator|34=1|52=20200720-01:58:58.781|98=0|108=30|141=N|10=083|
8=FIX.4.4|9=98|35=A|34=1|49=initiator|52=20200720-01:59:52.880|56=acceptor|98=0|108=30|553=domenico|554=domenico|10=129|
8=FIX.4.4|9=78|35=A|49=acceptor|56=initiator|34=1|52=20200720-01:59:52.958|98=0|108=30|141=N|10=084|
8=FIX.4.4|9=98|35=A|34=1|49=initiator|52=20200720-02:39:37.592|56=acceptor|98=0|108=30|553=domenico|554=domenico|10=131|
8=FIX.4.4|9=78|35=A|49=acceptor|56=initiator|34=1|52=20200720-02:39:37.672|98=0|108=30|141=N|10=079|
8=FIX.4.4|9=98|35=A|34=1|49=initiator|52=20200720-10:44:43.914|56=acceptor|98=0|108=30|553=domenico|554=domenico|10=121|
8=FIX.4.4|9=78|35=A|49=acceptor|56=initiator|34=1|52=20200720-10:44:43.987|98=0|108=30|141=N|10=080|
