8=FIX.4.4|9=98|35=A|34=1|49=initiator|52=20200716-22:16:59.383|56=acceptor|98=0|108=30|553=domenico|554=domenico|10=135|
8=FIX.4.4|9=98|35=A|34=2|49=initiator|52=20200716-22:17:11.378|56=acceptor|98=0|108=30|553=domenico|554=domenico|10=129|
8=FIX.4.4|9=98|35=A|34=1|49=initiator|52=20200716-22:19:35.165|56=acceptor|98=0|108=30|553=domenico|554=domenico|10=130|
8=FIX.4.4|9=78|35=A|49=acceptor|56=initiator|34=1|52=20200716-22:19:37.318|98=0|108=30|141=N|10=081|
8=FIX.4.4|9=60|35=0|34=2|49=initiator|52=20200716-22:20:05.712|56=acceptor|10=238|
8=FIX.4.4|9=98|35=A|34=1|49=initiator|52=20200716-22:20:13.563|56=acceptor|98=0|108=30|553=domenico|554=domenico|10=120|
8=FIX.4.4|9=98|35=A|34=2|49=initiator|52=20200716-22:20:25.557|56=acceptor|98=0|108=30|553=domenico|554=domenico|10=127|
8=FIX.4.4|9=98|35=A|34=3|49=initiator|52=20200716-22:20:37.556|56=acceptor|98=0|108=30|553=domenico|554=domenico|10=130|
8=FIX.4.4|9=98|35=A|34=4|49=initiator|52=20200716-22:20:48.556|56=acceptor|98=0|108=30|553=domenico|554=domenico|10=133|
8=FIX.4.4|9=98|35=A|34=1|49=initiator|52=20200716-22:21:01.986|56=acceptor|98=0|108=30|553=domenico|554=domenico|10=127|
8=FIX.4.4|9=98|35=A|34=2|49=initiator|52=20200716-22:21:13.982|56=acceptor|98=0|108=30|553=domenico|554=domenico|10=127|
8=FIX.4.4|9=98|35=A|34=1|49=initiator|52=20200716-22:22:00.486|56=acceptor|98=0|108=30|553=domenico|554=domenico|10=122|
8=FIX.4.4|9=78|35=A|49=acceptor|56=initiator|34=1|52=20200716-22:22:03.247|98=0|108=30|141=N|10=069|
8=FIX.4.4|9=60|35=0|49=acceptor|56=initiator|34=2|52=20200716-22:22:27.668|10=254|
8=FIX.4.4|9=60|35=0|34=2|49=initiator|52=20200716-22:22:30.480|56=acceptor|10=240|
8=FIX.4.4|9=60|35=0|34=3|49=initiator|52=20200716-22:23:00.480|56=acceptor|10=239|
8=FIX.4.4|9=69|35=1|34=4|49=initiator|52=20200716-22:23:13.480|56=acceptor|112=TEST|10=016|
8=FIX.4.4|9=98|35=A|34=1|49=initiator|52=20200717-12:33:18.480|56=acceptor|98=0|108=30|553=domenico|554=domenico|10=127|
8=FIX.4.4|9=99|35=A|34=1|49=initiator|52=20200717-12:46:59.812|56=acceptor|98=0|108=30|553=domenico|554=domenico2|10=186|
8=FIX.4.4|9=99|35=A|34=2|49=initiator|52=20200717-12:47:04.760|56=acceptor|98=0|108=30|553=domenico|554=domenico2|10=180|
8=FIX.4.4|9=99|35=A|34=3|49=initiator|52=20200717-12:47:09.759|56=acceptor|98=0|108=30|553=domenico|554=domenico2|10=194|
8=FIX.4.4|9=99|35=A|34=4|49=initiator|52=20200717-12:47:14.760|56=acceptor|98=0|108=30|553=domenico|554=domenico2|10=183|
8=FIX.4.4|9=99|35=A|34=5|49=initiator|52=20200717-12:47:19.760|56=acceptor|98=0|108=30|553=domenico|554=domenico2|10=189|
8=FIX.4.4|9=99|35=A|34=6|49=initiator|52=20200717-12:47:24.760|56=acceptor|98=0|108=30|553=domenico|554=domenico2|10=186|
8=FIX.4.4|9=99|35=A|34=7|49=initiator|52=20200717-12:47:29.761|56=acceptor|98=0|108=30|553=domenico|554=domenico2|10=193|
8=FIX.4.4|9=99|35=A|34=8|49=initiator|52=20200717-12:47:34.760|56=acceptor|98=0|108=30|553=domenico|554=domenico2|10=189|
8=FIX.4.4|9=99|35=A|34=9|49=initiator|52=20200717-12:47:39.759|56=acceptor|98=0|108=30|553=domenico|554=domenico2|10=203|
8=FIX.4.4|9=100|35=A|34=10|49=initiator|52=20200717-12:47:44.761|56=acceptor|98=0|108=30|553=domenico|554=domenico2|10=007|
8=FIX.4.4|9=100|35=A|34=11|49=initiator|52=20200717-12:47:49.760|56=acceptor|98=0|108=30|553=domenico|554=domenico2|10=012|
8=FIX.4.4|9=100|35=A|34=12|49=initiator|52=20200717-12:47:54.761|56=acceptor|98=0|108=30|553=domenico|554=domenico2|10=010|
8=FIX.4.4|9=100|35=A|34=13|49=initiator|52=20200717-12:47:59.761|56=acceptor|98=0|108=30|553=domenico|554=domenico2|10=016|
8=FIX.4.4|9=100|35=A|34=14|49=initiator|52=20200717-12:48:04.760|56=acceptor|98=0|108=30|553=domenico|554=domenico2|10=007|
8=FIX.4.4|9=100|35=A|34=15|49=initiator|52=20200717-12:48:09.760|56=acceptor|98=0|108=30|553=domenico|554=domenico2|10=013|
8=FIX.4.4|9=100|35=A|34=16|49=initiator|52=20200717-12:48:14.761|56=acceptor|98=0|108=30|553=domenico|554=domenico2|10=011|
8=FIX.4.4|9=100|35=A|34=17|49=initiator|52=20200717-12:48:19.760|56=acceptor|98=0|108=30|553=domenico|554=domenico2|10=016|
8=FIX.4.4|9=100|35=A|34=18|49=initiator|52=20200717-12:48:24.760|56=acceptor|98=0|108=30|553=domenico|554=domenico2|10=013|
8=FIX.4.4|9=100|35=A|34=19|49=initiator|52=20200717-12:48:29.761|56=acceptor|98=0|108=30|553=domenico|554=domenico2|10=020|
8=FIX.4.4|9=100|35=A|34=20|49=initiator|52=20200717-12:48:34.760|56=acceptor|98=0|108=30|553=domenico|554=domenico2|10=007|
8=FIX.4.4|9=100|35=A|34=21|49=initiator|52=20200717-12:48:39.760|56=acceptor|98=0|108=30|553=domenico|554=domenico2|10=013|
8=FIX.4.4|9=100|35=A|34=22|49=initiator|52=20200717-12:48:44.760|56=acceptor|98=0|108=30|553=domenico|554=domenico2|10=010|
8=FIX.4.4|9=100|35=A|34=23|49=initiator|52=20200717-12:48:49.761|56=acceptor|98=0|108=30|553=domenico|554=domenico2|10=017|
8=FIX.4.4|9=99|35=A|34=1|49=initiator|52=20200719-19:50:22.200|56=acceptor|98=0|108=30|553=domenico|554=domenico2|10=171|
8=FIX.4.4|9=99|35=A|34=1|49=initiator|52=20200719-19:52:08.979|56=acceptor|98=0|108=30|553=domenico|554=domenico2|10=200|
8=FIX.4.4|9=99|35=A|34=2|49=initiator|52=20200719-19:52:13.944|56=acceptor|98=0|108=30|553=domenico|554=domenico2|10=189|
8=FIX.4.4|9=99|35=A|34=3|49=initiator|52=20200719-19:52:18.944|56=acceptor|98=0|108=30|553=domenico|554=domenico2|10=195|
8=FIX.4.4|9=99|35=A|34=4|49=initiator|52=20200719-19:52:23.944|56=acceptor|98=0|108=30|553=domenico|554=domenico2|10=192|
8=FIX.4.4|9=99|35=A|34=5|49=initiator|52=20200719-19:52:28.945|56=acceptor|98=0|108=30|553=domenico|554=domenico2|10=199|
8=FIX.4.4|9=99|35=A|34=6|49=initiator|52=20200719-19:52:33.944|56=acceptor|98=0|108=30|553=domenico|554=domenico2|10=195|
8=FIX.4.4|9=99|35=A|34=7|49=initiator|52=20200719-19:52:38.944|56=acceptor|98=0|108=30|553=domenico|554=domenico2|10=201|
8=FIX.4.4|9=99|35=A|34=8|49=initiator|52=20200719-19:52:43.944|56=acceptor|98=0|108=30|553=domenico|554=domenico2|10=198|
8=FIX.4.4|9=99|35=A|34=9|49=initiator|52=20200719-19:52:48.945|56=acceptor|98=0|108=30|553=domenico|554=domenico2|10=205|
8=FIX.4.4|9=100|35=A|34=10|49=initiator|52=20200719-19:52:53.946|56=acceptor|98=0|108=30|553=domenico|554=domenico2|10=017|
8=FIX.4.4|9=99|35=A|34=1|49=initiator|52=20200719-23:56:20.655|56=acceptor|98=0|108=30|553=domenico|554=domenico2|10=184|
8=FIX.4.4|9=99|35=A|34=2|49=initiator|52=20200719-23:56:25.284|56=acceptor|98=0|108=30|553=domenico|554=domenico2|10=188|
8=FIX.4.4|9=99|35=A|34=3|49=initiator|52=20200719-23:56:30.619|56=acceptor|98=0|108=30|553=domenico|554=domenico2|10=187|
8=FIX.4.4|9=99|35=A|34=4|49=initiator|52=20200719-23:56:49.102|56=acceptor|98=0|108=30|553=domenico|554=domenico2|10=185|
8=FIX.4.4|9=99|35=A|34=5|49=initiator|52=20200719-23:56:54.618|56=acceptor|98=0|108=30|553=domenico|554=domenico2|10=194|
8=FIX.4.4|9=99|35=A|34=6|49=initiator|52=20200719-23:57:00.618|56=acceptor|98=0|108=30|553=domenico|554=domenico2|10=187|
8=FIX.4.4|9=99|35=A|34=1|49=initiator|52=20200720-00:01:54.222|56=acceptor|98=0|108=30|553=domenico|554=domenico2|10=158|
8=FIX.4.4|9=99|35=A|34=1|49=initiator|52=20200720-00:06:27.598|56=acceptor|98=0|108=30|553=domenico|554=domenico2|10=179|
8=FIX.4.4|9=99|35=A|34=1|49=initiator|52=20200720-00:10:51.872|56=acceptor|98=0|108=30|553=domenico|554=domenico2|10=166|
8=FIX.4.4|9=99|35=A|34=1|49=initiator|52=20200720-00:12:29.124|56=acceptor|98=0|108=30|553=domenico|554=domenico2|10=163|
8=FIX.4.4|9=99|35=A|34=1|49=initiator|52=20200720-00:23:31.960|56=acceptor|98=0|108=30|553=domenico|554=domenico2|10=166|
8=FIX.4.4|9=99|35=A|34=1|49=initiator|52=20200720-00:26:48.516|56=acceptor|98=0|108=30|553=domenico|554=domenico2|10=174|
8=FIX.4.4|9=99|35=A|34=1|49=initiator|52=20200720-01:36:06.222|56=acceptor|98=0|108=30|553=domenico|554=domenico2|10=164|
8=FIX.4.4|9=99|35=A|34=1|49=initiator|52=20200720-01:37:53.857|56=acceptor|98=0|108=30|553=domenico|554=domenico2|10=181|
8=FIX.4.4|9=99|35=A|34=1|49=initiator|52=20200720-01:55:54.823|56=acceptor|98=0|108=30|553=domenico|554=domenico2|10=175|
8=FIX.4.4|9=99|35=A|34=1|49=initiator|52=20200720-01:58:58.728|56=acceptor|98=0|108=30|553=domenico|554=domenico2|10=186|
8=FIX.4.4|9=99|35=A|34=1|49=initiator|52=20200720-01:59:52.907|56=acceptor|98=0|108=30|553=domenico|554=domenico2|10=180|
8=FIX.4.4|9=99|35=A|34=1|49=initiator|52=20200720-02:39:37.622|56=acceptor|98=0|108=30|553=domenico|554=domenico2|10=176|
8=FIX.4.4|9=99|35=A|34=1|49=initiator|52=20200720-10:44:43.941|56=acceptor|98=0|108=30|553=domenico|554=domenico2|10=172|
