8=FIX.4.4|9=99|35=A|34=1|49=initiator|52=20200717-12:46:59.814|56=acceptor|98=0|108=30|553=domenico|554=domenico2|10=188|
8=FIX.4.4|9=99|35=A|34=2|49=initiator|52=20200717-12:47:04.761|56=acceptor|98=0|108=30|553=domenico|554=domenico2|10=181|
8=FIX.4.4|9=99|35=A|34=3|49=initiator|52=20200717-12:47:09.762|56=acceptor|98=0|108=30|553=domenico|554=domenico2|10=188|
8=FIX.4.4|9=99|35=A|34=4|49=initiator|52=20200717-12:47:14.762|56=acceptor|98=0|108=30|553=domenico|554=domenico2|10=185|
8=FIX.4.4|9=99|35=A|34=5|49=initiator|52=20200717-12:47:19.762|56=acceptor|98=0|108=30|553=domenico|554=domenico2|10=191|
8=FIX.4.4|9=99|35=A|34=6|49=initiator|52=20200717-12:47:24.763|56=acceptor|98=0|108=30|553=domenico|554=domenico2|10=189|
8=FIX.4.4|9=99|35=A|34=7|49=initiator|52=20200717-12:47:29.765|56=acceptor|98=0|108=30|553=domenico|554=domenico2|10=197|
8=FIX.4.4|9=99|35=A|34=8|49=initiator|52=20200717-12:47:34.761|56=acceptor|98=0|108=30|553=domenico|554=domenico2|10=190|
8=FIX.4.4|9=99|35=A|34=9|49=initiator|52=20200717-12:47:39.761|56=acceptor|98=0|108=30|553=domenico|554=domenico2|10=196|
8=FIX.4.4|9=100|35=A|34=10|49=initiator|52=20200717-12:47:44.762|56=acceptor|98=0|108=30|553=domenico|554=domenico2|10=008|
8=FIX.4.4|9=100|35=A|34=11|49=initiator|52=20200717-12:47:49.762|56=acceptor|98=0|108=30|553=domenico|554=domenico2|10=014|
8=FIX.4.4|9=100|35=A|34=12|49=initiator|52=20200717-12:47:54.763|56=acceptor|98=0|108=30|553=domenico|554=domenico2|10=012|
8=FIX.4.4|9=100|35=A|34=13|49=initiator|52=20200717-12:47:59.763|56=acceptor|98=0|108=30|553=domenico|554=domenico2|10=018|
8=FIX.4.4|9=100|35=A|34=14|49=initiator|52=20200717-12:48:04.761|56=acceptor|98=0|108=30|553=domenico|554=domenico2|10=008|
8=FIX.4.4|9=100|35=A|34=15|49=initiator|52=20200717-12:48:09.764|56=acceptor|98=0|108=30|553=domenico|554=domenico2|10=017|
8=FIX.4.4|9=100|35=A|34=16|49=initiator|52=20200717-12:48:14.765|56=acceptor|98=0|108=30|553=domenico|554=domenico2|10=015|
8=FIX.4.4|9=100|35=A|34=17|49=initiator|52=20200717-12:48:19.762|56=acceptor|98=0|108=30|553=domenico|554=domenico2|10=018|
8=FIX.4.4|9=100|35=A|34=18|49=initiator|52=20200717-12:48:24.761|56=acceptor|98=0|108=30|553=domenico|554=domenico2|10=014|
8=FIX.4.4|9=100|35=A|34=19|49=initiator|52=20200717-12:48:29.764|56=acceptor|98=0|108=30|553=domenico|554=domenico2|10=023|
8=FIX.4.4|9=100|35=A|34=20|49=initiator|52=20200717-12:48:34.761|56=acceptor|98=0|108=30|553=domenico|554=domenico2|10=008|
8=FIX.4.4|9=100|35=A|34=21|49=initiator|52=20200717-12:48:39.762|56=acceptor|98=0|108=30|553=domenico|554=domenico2|10=015|
8=FIX.4.4|9=100|35=A|34=22|49=initiator|52=20200717-12:48:44.762|56=acceptor|98=0|108=30|553=domenico|554=domenico2|10=012|
8=FIX.4.4|9=100|35=A|34=23|49=initiator|52=20200717-12:48:49.762|56=acceptor|98=0|108=30|553=domenico|554=domenico2|10=018|
8=FIX.4.4|9=99|35=A|34=1|49=initiator|52=20200719-19:50:22.202|56=acceptor|98=0|108=30|553=domenico|554=domenico2|10=173|
8=FIX.4.4|9=99|35=A|34=1|49=initiator|52=20200719-19:52:08.981|56=acceptor|98=0|108=30|553=domenico|554=domenico2|10=193|
8=FIX.4.4|9=99|35=A|34=2|49=initiator|52=20200719-19:52:13.947|56=acceptor|98=0|108=30|553=domenico|554=domenico2|10=192|
8=FIX.4.4|9=99|35=A|34=3|49=initiator|52=20200719-19:52:18.946|56=acceptor|98=0|108=30|553=domenico|554=domenico2|10=197|
8=FIX.4.4|9=99|35=A|34=4|49=initiator|52=20200719-19:52:23.945|56=acceptor|98=0|108=30|553=domenico|554=domenico2|10=193|
8=FIX.4.4|9=99|35=A|34=5|49=initiator|52=20200719-19:52:28.947|56=acceptor|98=0|108=30|553=domenico|554=domenico2|10=201|
8=FIX.4.4|9=99|35=A|34=6|49=initiator|52=20200719-19:52:33.946|56=acceptor|98=0|108=30|553=domenico|554=domenico2|10=197|
8=FIX.4.4|9=99|35=A|34=7|49=initiator|52=20200719-19:52:38.948|56=acceptor|98=0|108=30|553=domenico|554=domenico2|10=205|
8=FIX.4.4|9=99|35=A|34=8|49=initiator|52=20200719-19:52:43.947|56=acceptor|98=0|108=30|553=domenico|554=domenico2|10=201|
8=FIX.4.4|9=99|35=A|34=9|49=initiator|52=20200719-19:52:48.947|56=acceptor|98=0|108=30|553=domenico|554=domenico2|10=207|
8=FIX.4.4|9=100|35=A|34=10|49=initiator|52=20200719-19:52:53.948|56=acceptor|98=0|108=30|553=domenico|554=domenico2|10=019|
8=FIX.4.4|9=99|35=A|34=1|49=initiator|52=20200719-23:56:20.657|56=acceptor|98=0|108=30|553=domenico|554=domenico2|10=186|
8=FIX.4.4|9=99|35=A|34=2|49=initiator|52=20200719-23:56:25.285|56=acceptor|98=0|108=30|553=domenico|554=domenico2|10=189|
8=FIX.4.4|9=99|35=A|34=3|49=initiator|52=20200719-23:56:30.620|56=acceptor|98=0|108=30|553=domenico|554=domenico2|10=179|
8=FIX.4.4|9=99|35=A|34=4|49=initiator|52=20200719-23:56:49.104|56=acceptor|98=0|108=30|553=domenico|554=domenico2|10=187|
8=FIX.4.4|9=99|35=A|34=5|49=initiator|52=20200719-23:56:54.620|56=acceptor|98=0|108=30|553=domenico|554=domenico2|10=187|
8=FIX.4.4|9=99|35=A|34=6|49=initiator|52=20200719-23:56:59.618|56=acceptor|98=0|108=30|553=domenico|554=domenico2|10=200|
8=FIX.4.4|9=99|35=A|34=7|49=initiator|52=20200719-23:57:04.619|56=acceptor|98=0|108=30|553=domenico|554=domenico2|10=193|
8=FIX.4.4|9=99|35=A|34=1|49=initiator|52=20200720-00:01:54.225|56=acceptor|98=0|108=30|553=domenico|554=domenico2|10=161|
8=FIX.4.4|9=99|35=A|34=1|49=initiator|52=20200720-00:06:27.600|56=acceptor|98=0|108=30|553=domenico|554=domenico2|10=163|
8=FIX.4.4|9=99|35=A|34=1|49=initiator|52=20200720-00:10:51.874|56=acceptor|98=0|108=30|553=domenico|554=domenico2|10=168|
8=FIX.4.4|9=99|35=A|34=1|49=initiator|52=20200720-00:12:29.126|56=acceptor|98=0|108=30|553=domenico|554=domenico2|10=165|
8=FIX.4.4|9=99|35=A|34=1|49=initiator|52=20200720-00:23:31.963|56=acceptor|98=0|108=30|553=domenico|554=domenico2|10=169|
8=FIX.4.4|9=99|35=A|34=1|49=initiator|52=20200720-00:26:48.517|56=acceptor|98=0|108=30|553=domenico|554=domenico2|10=175|
8=FIX.4.4|9=99|35=A|34=1|49=initiator|52=20200720-01:36:06.224|56=acceptor|98=0|108=30|553=domenico|554=domenico2|10=166|
8=FIX.4.4|9=99|35=A|34=1|49=initiator|52=20200720-01:37:53.859|56=acceptor|98=0|108=30|553=domenico|554=domenico2|10=183|
8=FIX.4.4|9=99|35=A|34=1|49=initiator|52=20200720-01:55:54.825|56=acceptor|98=0|108=30|553=domenico|554=domenico2|10=177|
8=FIX.4.4|9=99|35=A|34=1|49=initiator|52=20200720-01:58:58.730|56=acceptor|98=0|108=30|553=domenico|554=domenico2|10=179|
8=FIX.4.4|9=99|35=A|34=1|49=initiator|52=20200720-01:59:52.909|56=acceptor|98=0|108=30|553=domenico|554=domenico2|10=182|
8=FIX.4.4|9=99|35=A|34=1|49=initiator|52=20200720-02:39:37.624|56=acceptor|98=0|108=30|553=domenico|554=domenico2|10=178|
8=FIX.4.4|9=99|35=A|34=1|49=initiator|52=20200720-10:44:43.943|56=acceptor|98=0|108=30|553=domenico|554=domenico2|10=174|
