8=FIX.4.4|9=98|35=A|34=1|49=initiator|52=20200716-22:16:59.409|56=acceptor|98=0|108=30|553=domenico|554=domenico|10=134|
8=FIX.4.4|9=98|35=A|34=2|49=initiator|52=20200716-22:17:11.380|56=acceptor|98=0|108=30|553=domenico|554=domenico|10=122|
8=FIX.4.4|9=98|35=A|34=1|49=initiator|52=20200716-22:19:36.712|56=acceptor|98=0|108=30|553=domenico|554=domenico|10=129|
8=FIX.4.4|9=98|35=A|34=2|49=initiator|52=20200716-22:19:41.711|56=acceptor|98=0|108=30|553=domenico|554=domenico|10=125|
8=FIX.4.4|9=98|35=A|34=3|49=initiator|52=20200716-22:19:52.713|56=acceptor|98=0|108=30|553=domenico|554=domenico|10=130|
8=FIX.4.4|9=98|35=A|34=4|49=initiator|52=20200716-22:20:03.712|56=acceptor|98=0|108=30|553=domenico|554=domenico|10=118|
8=FIX.4.4|9=98|35=A|34=1|49=initiator|52=20200716-22:20:13.593|56=acceptor|98=0|108=30|553=domenico|554=domenico|10=123|
8=FIX.4.4|9=98|35=A|34=2|49=initiator|52=20200716-22:20:25.558|56=acceptor|98=0|108=30|553=domenico|554=domenico|10=128|
8=FIX.4.4|9=98|35=A|34=3|49=initiator|52=20200716-22:20:37.557|56=acceptor|98=0|108=30|553=domenico|554=domenico|10=131|
8=FIX.4.4|9=98|35=A|34=4|49=initiator|52=20200716-22:20:48.557|56=acceptor|98=0|108=30|553=domenico|554=domenico|10=134|
8=FIX.4.4|9=98|35=A|34=1|49=initiator|52=20200716-22:21:02.016|56=acceptor|98=0|108=30|553=domenico|554=domenico|10=112|
8=FIX.4.4|9=98|35=A|34=2|49=initiator|52=20200716-22:21:13.983|56=acceptor|98=0|108=30|553=domenico|554=domenico|10=128|
8=FIX.4.4|9=98|35=A|34=1|49=initiator|52=20200716-22:22:00.515|56=acceptor|98=0|108=30|553=domenico|554=domenico|10=115|
8=FIX.4.4|9=98|35=A|34=2|49=initiator|52=20200716-22:22:05.480|56=acceptor|98=0|108=30|553=domenico|554=domenico|10=122|
8=FIX.4.4|9=98|35=A|34=3|49=initiator|52=20200716-22:22:10.480|56=acceptor|98=0|108=30|553=domenico|554=domenico|10=119|
8=FIX.4.4|9=98|35=A|34=4|49=initiator|52=20200716-22:22:15.481|56=acceptor|98=0|108=30|553=domenico|554=domenico|10=126|
8=FIX.4.4|9=98|35=A|34=5|49=initiator|52=20200716-22:22:20.479|56=acceptor|98=0|108=30|553=domenico|554=domenico|10=130|
8=FIX.4.4|9=98|35=A|34=6|49=initiator|52=20200716-22:22:25.479|56=acceptor|98=0|108=30|553=domenico|554=domenico|10=136|
8=FIX.4.4|9=98|35=A|34=7|49=initiator|52=20200716-22:22:30.480|56=acceptor|98=0|108=30|553=domenico|554=domenico|10=125|
8=FIX.4.4|9=98|35=A|34=8|49=initiator|52=20200716-22:22:41.480|56=acceptor|98=0|108=30|553=domenico|554=domenico|10=128|
8=FIX.4.4|9=98|35=A|34=9|49=initiator|52=20200716-22:22:52.480|56=acceptor|98=0|108=30|553=domenico|554=domenico|10=131|
8=FIX.4.4|9=99|35=A|34=10|49=initiator|52=20200716-22:23:04.480|56=acceptor|98=0|108=30|553=domenico|554=domenico|10=170|
8=FIX.4.4|9=99|35=A|34=11|49=initiator|52=20200716-22:23:15.480|56=acceptor|98=0|108=30|553=domenico|554=domenico|10=173|
8=FIX.4.4|9=99|35=A|34=12|49=initiator|52=20200716-22:23:26.479|56=acceptor|98=0|108=30|553=domenico|554=domenico|10=184|
8=FIX.4.4|9=99|35=A|34=13|49=initiator|52=20200716-22:23:37.479|56=acceptor|98=0|108=30|553=domenico|554=domenico|10=187|
8=FIX.4.4|9=98|35=A|34=1|49=initiator|52=20200717-12:00:53.947|56=acceptor|98=0|108=30|553=domenico|554=domenico|10=128|
8=FIX.4.4|9=98|35=A|34=2|49=initiator|52=20200717-12:33:18.481|56=acceptor|98=0|108=30|553=domenico|554=domenico|10=129|
8=FIX.4.4|9=98|35=A|34=1|49=initiator|52=20200717-12:46:59.813|56=acceptor|98=0|108=30|553=domenico|554=domenico|10=136|
8=FIX.4.4|9=98|35=A|34=2|49=initiator|52=20200717-12:47:04.761|56=acceptor|98=0|108=30|553=domenico|554=domenico|10=130|
8=FIX.4.4|9=98|35=A|34=3|49=initiator|52=20200717-12:47:09.761|56=acceptor|98=0|108=30|553=domenico|554=domenico|10=136|
8=FIX.4.4|9=98|35=A|34=4|49=initiator|52=20200717-12:47:14.761|56=acceptor|98=0|108=30|553=domenico|554=domenico|10=133|
8=FIX.4.4|9=98|35=A|34=5|49=initiator|52=20200717-12:47:19.761|56=acceptor|98=0|108=30|553=domenico|554=domenico|10=139|
8=FIX.4.4|9=98|35=A|34=6|49=initiator|52=20200717-12:47:24.761|56=acceptor|98=0|108=30|553=domenico|554=domenico|10=136|
8=FIX.4.4|9=98|35=A|34=7|49=initiator|52=20200717-12:47:29.763|56=acceptor|98=0|108=30|553=domenico|554=domenico|10=144|
8=FIX.4.4|9=98|35=A|34=8|49=initiator|52=20200717-12:47:34.761|56=acceptor|98=0|108=30|553=domenico|554=domenico|10=139|
8=FIX.4.4|9=98|35=A|34=9|49=initiator|52=20200717-12:47:39.760|56=acceptor|98=0|108=30|553=domenico|554=domenico|10=144|
8=FIX.4.4|9=99|35=A|34=10|49=initiator|52=20200717-12:47:44.761|56=acceptor|98=0|108=30|553=domenico|554=domenico|10=182|
8=FIX.4.4|9=99|35=A|34=11|49=initiator|52=20200717-12:47:49.761|56=acceptor|98=0|108=30|553=domenico|554=domenico|10=188|
8=FIX.4.4|9=99|35=A|34=12|49=initiator|52=20200717-12:47:54.762|56=acceptor|98=0|108=30|553=domenico|554=domenico|10=186|
8=FIX.4.4|9=99|35=A|34=13|49=initiator|52=20200717-12:47:59.762|56=acceptor|98=0|108=30|553=domenico|554=domenico|10=192|
8=FIX.4.4|9=99|35=A|34=14|49=initiator|52=20200717-12:48:04.761|56=acceptor|98=0|108=30|553=domenico|554=domenico|10=183|
8=FIX.4.4|9=99|35=A|34=15|49=initiator|52=20200717-12:48:09.761|56=acceptor|98=0|108=30|553=domenico|554=domenico|10=189|
8=FIX.4.4|9=99|35=A|34=16|49=initiator|52=20200717-12:48:14.763|56=acceptor|98=0|108=30|553=domenico|554=domenico|10=188|
8=FIX.4.4|9=99|35=A|34=17|49=initiator|52=20200717-12:48:19.761|56=acceptor|98=0|108=30|553=domenico|554=domenico|10=192|
8=FIX.4.4|9=99|35=A|34=18|49=initiator|52=20200717-12:48:24.760|56=acceptor|98=0|108=30|553=domenico|554=domenico|10=188|
8=FIX.4.4|9=99|35=A|34=19|49=initiator|52=20200717-12:48:29.762|56=acceptor|98=0|108=30|553=domenico|554=domenico|10=196|
8=FIX.4.4|9=99|35=A|34=20|49=initiator|52=20200717-12:48:34.760|56=acceptor|98=0|108=30|553=domenico|554=domenico|10=182|
8=FIX.4.4|9=99|35=A|34=21|49=initiator|52=20200717-12:48:39.761|56=acceptor|98=0|108=30|553=domenico|554=domenico|10=189|
8=FIX.4.4|9=99|35=A|34=22|49=initiator|52=20200717-12:48:44.761|56=acceptor|98=0|108=30|553=domenico|554=domenico|10=186|
8=FIX.4.4|9=99|35=A|34=23|49=initiator|52=20200717-12:48:49.761|56=acceptor|98=0|108=30|553=domenico|554=domenico|10=192|
8=FIX.4.4|9=98|35=A|34=1|49=initiator|52=20200719-19:50:22.201|56=acceptor|98=0|108=30|553=domenico|554=domenico|10=121|
8=FIX.4.4|9=98|35=A|34=1|49=initiator|52=20200719-19:52:08.980|56=acceptor|98=0|108=30|553=domenico|554=domenico|10=141|
8=FIX.4.4|9=98|35=A|34=2|49=initiator|52=20200719-19:52:13.946|56=acceptor|98=0|108=30|553=domenico|554=domenico|10=140|
8=FIX.4.4|9=98|35=A|34=3|49=initiator|52=20200719-19:52:18.945|56=acceptor|98=0|108=30|553=domenico|554=domenico|10=145|
8=FIX.4.4|9=98|35=A|34=4|49=initiator|52=20200719-19:52:23.945|56=acceptor|98=0|108=30|553=domenico|554=domenico|10=142|
8=FIX.4.4|9=98|35=A|34=5|49=initiator|52=20200719-19:52:28.946|56=acceptor|98=0|108=30|553=domenico|554=domenico|10=149|
8=FIX.4.4|9=98|35=A|34=6|49=initiator|52=20200719-19:52:33.945|56=acceptor|98=0|108=30|553=domenico|554=domenico|10=145|
8=FIX.4.4|9=98|35=A|34=7|49=initiator|52=20200719-19:52:38.946|56=acceptor|98=0|108=30|553=domenico|554=domenico|10=152|
8=FIX.4.4|9=98|35=A|34=8|49=initiator|52=20200719-19:52:43.946|56=acceptor|98=0|108=30|553=domenico|554=domenico|10=149|
8=FIX.4.4|9=98|35=A|34=9|49=initiator|52=20200719-19:52:48.945|56=acceptor|98=0|108=30|553=domenico|554=domenico|10=154|
8=FIX.4.4|9=99|35=A|34=10|49=initiator|52=20200719-19:52:53.947|56=acceptor|98=0|108=30|553=domenico|554=domenico|10=193|
8=FIX.4.4|9=98|35=A|34=1|49=initiator|52=20200719-23:56:20.656|56=acceptor|98=0|108=30|553=domenico|554=domenico|10=134|
8=FIX.4.4|9=98|35=A|34=2|49=initiator|52=20200719-23:56:25.285|56=acceptor|98=0|108=30|553=domenico|554=domenico|10=138|
8=FIX.4.4|9=98|35=A|34=3|49=initiator|52=20200719-23:56:30.619|56=acceptor|98=0|108=30|553=domenico|554=domenico|10=136|
8=FIX.4.4|9=98|35=A|34=4|49=initiator|52=20200719-23:56:49.103|56=acceptor|98=0|108=30|553=domenico|554=domenico|10=135|
8=FIX.4.4|9=98|35=A|34=5|49=initiator|52=20200719-23:56:54.619|56=acceptor|98=0|108=30|553=domenico|554=domenico|10=144|
8=FIX.4.4|9=98|35=A|34=6|49=initiator|52=20200719-23:57:00.619|56=acceptor|98=0|108=30|553=domenico|554=domenico|10=137|
8=FIX.4.4|9=98|35=A|34=1|49=initiator|52=20200720-00:01:54.224|56=acceptor|98=0|108=30|553=domenico|554=domenico|10=109|
8=FIX.4.4|9=98|35=A|34=1|49=initiator|52=20200720-00:06:27.599|56=acceptor|98=0|108=30|553=domenico|554=domenico|10=129|
8=FIX.4.4|9=98|35=A|34=1|49=initiator|52=20200720-00:10:51.874|56=acceptor|98=0|108=30|553=domenico|554=domenico|10=117|
8=FIX.4.4|9=98|35=A|34=1|49=initiator|52=20200720-00:12:29.126|56=acceptor|98=0|108=30|553=domenico|554=domenico|10=114|
8=FIX.4.4|9=98|35=A|34=1|49=initiator|52=20200720-00:23:31.962|56=acceptor|98=0|108=30|553=domenico|554=domenico|10=117|
8=FIX.4.4|9=98|35=A|34=1|49=initiator|52=20200720-00:26:48.517|56=acceptor|98=0|108=30|553=domenico|554=domenico|10=124|
8=FIX.4.4|9=78|35=A|49=acceptor|56=initiator|34=1|52=20200720-00:26:48.570|98=0|108=30|141=N|10=072|
8=FIX.4.4|9=60|35=0|49=acceptor|56=initiator|34=2|52=20200720-00:27:12.592|10=240|
8=FIX.4.4|9=60|35=0|34=2|49=initiator|52=20200720-00:27:19.484|56=acceptor|10=247|
8=FIX.4.4|9=60|35=0|49=acceptor|56=initiator|34=3|52=20200720-00:27:36.592|10=247|
8=FIX.4.4|9=60|35=0|34=3|49=initiator|52=20200720-00:27:49.484|56=acceptor|10=251|
8=FIX.4.4|9=60|35=0|49=acceptor|56=initiator|34=4|52=20200720-00:28:00.593|10=241|
8=FIX.4.4|9=98|35=A|34=1|49=initiator|52=20200720-01:36:06.223|56=acceptor|98=0|108=30|553=domenico|554=domenico|10=114|
8=FIX.4.4|9=78|35=A|49=acceptor|56=initiator|34=1|52=20200720-01:36:06.298|98=0|108=30|141=N|10=075|
8=FIX.4.4|9=98|35=A|34=1|49=initiator|52=20200720-01:37:53.858|56=acceptor|98=0|108=30|553=domenico|554=domenico|10=131|
8=FIX.4.4|9=98|35=A|34=1|49=initiator|52=20200720-01:55:54.824|56=acceptor|98=0|108=30|553=domenico|554=domenico|10=125|
8=FIX.4.4|9=98|35=A|34=1|49=initiator|52=20200720-01:58:58.729|56=acceptor|98=0|108=30|553=domenico|554=domenico|10=136|
8=FIX.4.4|9=98|35=A|34=1|49=initiator|52=20200720-01:59:52.909|56=acceptor|98=0|108=30|553=domenico|554=domenico|10=131|
8=FIX.4.4|9=98|35=A|34=1|49=initiator|52=20200720-02:39:37.623|56=acceptor|98=0|108=30|553=domenico|554=domenico|10=126|
8=FIX.4.4|9=98|35=A|34=1|49=initiator|52=20200720-10:44:43.942|56=acceptor|98=0|108=30|553=domenico|554=domenico|10=122|
